{
  "_format": "hh-sol-artifact-1",
  "contractName": "LCToken",
  "sourceName": "contracts/token.sol",
  "abi": [
    {
      "inputs": [
        {
          "internalType": "uint256",
          "name": "_initialSupply",
          "type": "uint256"
        },
        {
          "internalType": "uint256",
          "name": "_salePrice",
          "type": "uint256"
        },
        {
          "internalType": "string",
          "name": "_name",
          "type": "string"
        },
        {
          "internalType": "string",
          "name": "_tokenSymbol",
          "type": "string"
        },
        {
          "internalType": "address",
          "name": "_ownerAddress",
          "type": "address"
        },
        {
          "internalType": "address",
          "name": "_marginBank",
          "type": "address"
        },
        {
          "internalType": "uint256",
          "name": "_margin",
          "type": "uint256"
        },
        {
          "internalType": "uint8",
          "name": "_decimals",
          "type": "uint8"
        }
      ],
      "stateMutability": "nonpayable",
      "type": "constructor"
    },
    {
      "inputs": [
        {
          "internalType": "address",
          "name": "spender",
          "type": "address"
        },
        {
          "internalType": "uint256",
          "name": "allowance",
          "type": "uint256"
        },
        {
          "internalType": "uint256",
          "name": "needed",
          "type": "uint256"
        }
      ],
      "name": "ERC20InsufficientAllowance",
      "type": "error"
    },
    {
      "inputs": [
        {
          "internalType": "address",
          "name": "sender",
          "type": "address"
        },
        {
          "internalType": "uint256",
          "name": "balance",
          "type": "uint256"
        },
        {
          "internalType": "uint256",
          "name": "needed",
          "type": "uint256"
        }
      ],
      "name": "ERC20InsufficientBalance",
      "type": "error"
    },
    {
      "inputs": [
        {
          "internalType": "address",
          "name": "approver",
          "type": "address"
        }
      ],
      "name": "ERC20InvalidApprover",
      "type": "error"
    },
    {
      "inputs": [
        {
          "internalType": "address",
          "name": "receiver",
          "type": "address"
        }
      ],
      "name": "ERC20InvalidReceiver",
      "type": "error"
    },
    {
      "inputs": [
        {
          "internalType": "address",
          "name": "sender",
          "type": "address"
        }
      ],
      "name": "ERC20InvalidSender",
      "type": "error"
    },
    {
      "inputs": [
        {
          "internalType": "address",
          "name": "spender",
          "type": "address"
        }
      ],
      "name": "ERC20InvalidSpender",
      "type": "error"
    },
    {
      "anonymous": false,
      "inputs": [
        {
          "indexed": true,
          "internalType": "address",
          "name": "owner",
          "type": "address"
        },
        {
          "indexed": true,
          "internalType": "address",
          "name": "spender",
          "type": "address"
        },
        {
          "indexed": false,
          "internalType": "uint256",
          "name": "value",
          "type": "uint256"
        }
      ],
      "name": "Approval",
      "type": "event"
    },
    {
      "anonymous": false,
      "inputs": [
        {
          "indexed": true,
          "internalType": "address",
          "name": "from",
          "type": "address"
        },
        {
          "indexed": true,
          "internalType": "address",
          "name": "to",
          "type": "address"
        },
        {
          "indexed": false,
          "internalType": "uint256",
          "name": "value",
          "type": "uint256"
        }
      ],
      "name": "Transfer",
      "type": "event"
    },
    {
      "inputs": [
        {
          "internalType": "address",
          "name": "owner",
          "type": "address"
        },
        {
          "internalType": "address",
          "name": "spender",
          "type": "address"
        }
      ],
      "name": "allowance",
      "outputs": [
        {
          "internalType": "uint256",
          "name": "",
          "type": "uint256"
        }
      ],
      "stateMutability": "view",
      "type": "function"
    },
    {
      "inputs": [
        {
          "internalType": "address",
          "name": "spender",
          "type": "address"
        },
        {
          "internalType": "uint256",
          "name": "value",
          "type": "uint256"
        }
      ],
      "name": "approve",
      "outputs": [
        {
          "internalType": "bool",
          "name": "",
          "type": "bool"
        }
      ],
      "stateMutability": "nonpayable",
      "type": "function"
    },
    {
      "inputs": [
        {
          "internalType": "address",
          "name": "account",
          "type": "address"
        }
      ],
      "name": "balanceOf",
      "outputs": [
        {
          "internalType": "uint256",
          "name": "",
          "type": "uint256"
        }
      ],
      "stateMutability": "view",
      "type": "function"
    },
    {
      "inputs": [],
      "name": "balanceOfHeldShares",
      "outputs": [
        {
          "internalType": "uint256",
          "name": "",
          "type": "uint256"
        }
      ],
      "stateMutability": "view",
      "type": "function"
    },
    {
      "inputs": [
        {
          "internalType": "uint256",
          "name": "id",
          "type": "uint256"
        }
      ],
      "name": "cancelBuyOrder",
      "outputs": [],
      "stateMutability": "nonpayable",
      "type": "function"
    },
    {
      "inputs": [
        {
          "internalType": "uint256",
          "name": "id",
          "type": "uint256"
        }
      ],
      "name": "cancelSellOrder",
      "outputs": [],
      "stateMutability": "nonpayable",
      "type": "function"
    },
    {
      "inputs": [
        {
          "internalType": "address",
          "name": "_address",
          "type": "address"
        },
        {
          "internalType": "uint256",
          "name": "_value",
          "type": "uint256"
        }
      ],
      "name": "contractReleaseTokens",
      "outputs": [],
      "stateMutability": "nonpayable",
      "type": "function"
    },
    {
      "inputs": [],
      "name": "contractTokenBalance",
      "outputs": [
        {
          "internalType": "uint256",
          "name": "",
          "type": "uint256"
        }
      ],
      "stateMutability": "view",
      "type": "function"
    },
    {
      "inputs": [],
      "name": "decimals",
      "outputs": [
        {
          "internalType": "uint8",
          "name": "",
          "type": "uint8"
        }
      ],
      "stateMutability": "view",
      "type": "function"
    },
    {
      "inputs": [],
      "name": "forSale",
      "outputs": [
        {
          "internalType": "bool",
          "name": "",
          "type": "bool"
        }
      ],
      "stateMutability": "view",
      "type": "function"
    },
    {
      "inputs": [],
      "name": "getAllBuyOrders",
      "outputs": [
        {
          "internalType": "uint256[]",
          "name": "",
          "type": "uint256[]"
        },
        {
          "internalType": "uint256[]",
          "name": "",
          "type": "uint256[]"
        },
        {
          "internalType": "uint256[]",
          "name": "",
          "type": "uint256[]"
        },
        {
          "internalType": "uint256[]",
          "name": "",
          "type": "uint256[]"
        }
      ],
      "stateMutability": "view",
      "type": "function"
    },
    {
      "inputs": [],
      "name": "getAllSellOrders",
      "outputs": [
        {
          "internalType": "uint256[]",
          "name": "",
          "type": "uint256[]"
        },
        {
          "internalType": "uint256[]",
          "name": "",
          "type": "uint256[]"
        },
        {
          "internalType": "uint256[]",
          "name": "",
          "type": "uint256[]"
        },
        {
          "internalType": "uint256[]",
          "name": "",
          "type": "uint256[]"
        }
      ],
      "stateMutability": "view",
      "type": "function"
    },
    {
      "inputs": [
        {
          "internalType": "address",
          "name": "_address",
          "type": "address"
        }
      ],
      "name": "getBuyOrdersByAddress",
      "outputs": [
        {
          "internalType": "address[]",
          "name": "",
          "type": "address[]"
        },
        {
          "internalType": "uint256[]",
          "name": "",
          "type": "uint256[]"
        },
        {
          "internalType": "uint256[]",
          "name": "",
          "type": "uint256[]"
        },
        {
          "internalType": "uint256[]",
          "name": "",
          "type": "uint256[]"
        },
        {
          "internalType": "enum LCToken.OrderState[]",
          "name": "",
          "type": "uint8[]"
        },
        {
          "internalType": "uint256[]",
          "name": "",
          "type": "uint256[]"
        }
      ],
      "stateMutability": "view",
      "type": "function"
    },
    {
      "inputs": [],
      "name": "getContractSalePrice",
      "outputs": [
        {
          "internalType": "uint256",
          "name": "",
          "type": "uint256"
        }
      ],
      "stateMutability": "view",
      "type": "function"
    },
    {
      "inputs": [],
      "name": "getHeldETH",
      "outputs": [
        {
          "internalType": "uint256",
          "name": "",
          "type": "uint256"
        }
      ],
      "stateMutability": "view",
      "type": "function"
    },
    {
      "inputs": [],
      "name": "getHeldShares",
      "outputs": [
        {
          "internalType": "uint256",
          "name": "",
          "type": "uint256"
        }
      ],
      "stateMutability": "view",
      "type": "function"
    },
    {
      "inputs": [],
      "name": "getMetaData",
      "outputs": [
        {
          "components": [
            {
              "internalType": "string",
              "name": "mediaDataPackURI",
              "type": "string"
            }
          ],
          "internalType": "struct LCToken.tokenMeta",
          "name": "",
          "type": "tuple"
        }
      ],
      "stateMutability": "view",
      "type": "function"
    },
    {
      "inputs": [],
      "name": "getOwners",
      "outputs": [
        {
          "internalType": "address[]",
          "name": "",
          "type": "address[]"
        }
      ],
      "stateMutability": "view",
      "type": "function"
    },
    {
      "inputs": [
        {
          "internalType": "address",
          "name": "_address",
          "type": "address"
        }
      ],
      "name": "getSellOrdersByAddress",
      "outputs": [
        {
          "internalType": "address[]",
          "name": "",
          "type": "address[]"
        },
        {
          "internalType": "uint256[]",
          "name": "",
          "type": "uint256[]"
        },
        {
          "internalType": "uint256[]",
          "name": "",
          "type": "uint256[]"
        },
        {
          "internalType": "uint256[]",
          "name": "",
          "type": "uint256[]"
        },
        {
          "internalType": "enum LCToken.OrderState[]",
          "name": "",
          "type": "uint8[]"
        },
        {
          "internalType": "uint256[]",
          "name": "",
          "type": "uint256[]"
        }
      ],
      "stateMutability": "view",
      "type": "function"
    },
    {
      "inputs": [],
      "name": "getSharePrice",
      "outputs": [
        {
          "internalType": "uint256",
          "name": "",
          "type": "uint256"
        }
      ],
      "stateMutability": "view",
      "type": "function"
    },
    {
      "inputs": [],
      "name": "getTokenAll",
      "outputs": [
        {
          "internalType": "address[]",
          "name": "",
          "type": "address[]"
        },
        {
          "components": [
            {
              "internalType": "string",
              "name": "mediaDataPackURI",
              "type": "string"
            }
          ],
          "internalType": "struct LCToken.tokenMeta",
          "name": "",
          "type": "tuple"
        },
        {
          "internalType": "string",
          "name": "",
          "type": "string"
        },
        {
          "internalType": "string",
          "name": "",
          "type": "string"
        },
        {
          "internalType": "uint256",
          "name": "",
          "type": "uint256"
        },
        {
          "internalType": "uint256",
          "name": "",
          "type": "uint256"
        },
        {
          "internalType": "uint256",
          "name": "",
          "type": "uint256"
        },
        {
          "internalType": "uint256",
          "name": "",
          "type": "uint256"
        },
        {
          "internalType": "bool",
          "name": "",
          "type": "bool"
        },
        {
          "internalType": "uint256",
          "name": "",
          "type": "uint256"
        },
        {
          "internalType": "uint256",
          "name": "",
          "type": "uint256"
        },
        {
          "internalType": "uint256",
          "name": "",
          "type": "uint256"
        }
      ],
      "stateMutability": "view",
      "type": "function"
    },
    {
      "inputs": [],
      "name": "getTransactions",
      "outputs": [
        {
          "internalType": "uint256[]",
          "name": "",
          "type": "uint256[]"
        },
        {
          "internalType": "uint256[]",
          "name": "",
          "type": "uint256[]"
        },
        {
          "internalType": "uint256[]",
          "name": "",
          "type": "uint256[]"
        },
        {
          "internalType": "address[]",
          "name": "",
          "type": "address[]"
        },
        {
          "internalType": "address[]",
          "name": "",
          "type": "address[]"
        }
      ],
      "stateMutability": "view",
      "type": "function"
    },
    {
      "inputs": [],
      "name": "initialSupply",
      "outputs": [
        {
          "internalType": "uint256",
          "name": "",
          "type": "uint256"
        }
      ],
      "stateMutability": "view",
      "type": "function"
    },
    {
      "inputs": [],
      "name": "isForSale",
      "outputs": [
        {
          "internalType": "bool",
          "name": "",
          "type": "bool"
        }
      ],
      "stateMutability": "view",
      "type": "function"
    },
    {
      "inputs": [],
      "name": "makeOfferToBuyContract",
      "outputs": [],
      "stateMutability": "payable",
      "type": "function"
    },
    {
      "inputs": [],
      "name": "name",
      "outputs": [
        {
          "internalType": "string",
          "name": "",
          "type": "string"
        }
      ],
      "stateMutability": "view",
      "type": "function"
    },
    {
      "inputs": [],
      "name": "offerState",
      "outputs": [
        {
          "internalType": "enum LCToken.OfferState",
          "name": "",
          "type": "uint8"
        }
      ],
      "stateMutability": "view",
      "type": "function"
    },
    {
      "inputs": [
        {
          "internalType": "uint256",
          "name": "shareValue",
          "type": "uint256"
        },
        {
          "internalType": "uint256",
          "name": "ethValue",
          "type": "uint256"
        }
      ],
      "name": "placeBuyOrder",
      "outputs": [
        {
          "internalType": "uint256",
          "name": "",
          "type": "uint256"
        }
      ],
      "stateMutability": "payable",
      "type": "function"
    },
    {
      "inputs": [
        {
          "internalType": "uint256",
          "name": "shareValue",
          "type": "uint256"
        },
        {
          "internalType": "uint256",
          "name": "ethValue",
          "type": "uint256"
        }
      ],
      "name": "placeSellOrder",
      "outputs": [
        {
          "internalType": "uint256",
          "name": "",
          "type": "uint256"
        }
      ],
      "stateMutability": "nonpayable",
      "type": "function"
    },
    {
      "inputs": [],
      "name": "setForSaleOff",
      "outputs": [],
      "stateMutability": "nonpayable",
      "type": "function"
    },
    {
      "inputs": [],
      "name": "setForSaleOn",
      "outputs": [],
      "stateMutability": "nonpayable",
      "type": "function"
    },
    {
      "inputs": [
        {
          "internalType": "string",
          "name": "_mediaDataPackURI",
          "type": "string"
        }
      ],
      "name": "setMetaData",
      "outputs": [],
      "stateMutability": "nonpayable",
      "type": "function"
    },
    {
      "inputs": [],
      "name": "symbol",
      "outputs": [
        {
          "internalType": "string",
          "name": "",
          "type": "string"
        }
      ],
      "stateMutability": "view",
      "type": "function"
    },
    {
      "inputs": [],
      "name": "tokenmeta",
      "outputs": [
        {
          "internalType": "string",
          "name": "mediaDataPackURI",
          "type": "string"
        }
      ],
      "stateMutability": "view",
      "type": "function"
    },
    {
      "inputs": [],
      "name": "totalSupply",
      "outputs": [
        {
          "internalType": "uint256",
          "name": "",
          "type": "uint256"
        }
      ],
      "stateMutability": "view",
      "type": "function"
    },
    {
      "inputs": [
        {
          "internalType": "address",
          "name": "to",
          "type": "address"
        },
        {
          "internalType": "uint256",
          "name": "value",
          "type": "uint256"
        }
      ],
      "name": "transfer",
      "outputs": [
        {
          "internalType": "bool",
          "name": "",
          "type": "bool"
        }
      ],
      "stateMutability": "nonpayable",
      "type": "function"
    },
    {
      "inputs": [
        {
          "internalType": "address",
          "name": "from",
          "type": "address"
        },
        {
          "internalType": "address",
          "name": "to",
          "type": "address"
        },
        {
          "internalType": "uint256",
          "name": "value",
          "type": "uint256"
        }
      ],
      "name": "transferFrom",
      "outputs": [
        {
          "internalType": "bool",
          "name": "",
          "type": "bool"
        }
      ],
      "stateMutability": "nonpayable",
      "type": "function"
    }
  ],
  "bytecode": "0x6080604052600060068190556009819055600a819055600e805461ffff1916905560118190556012556013805460ff1916905534801561003e57600080fd5b50604051613db0380380613db083398101604081905261005d9161035d565b8585600361006b83826104aa565b50600461007882826104aa565b505050600c889055600d8790556013805461ff001916610100178155600f80546001810182556000919091527f8d1108e10bcb7c27dddfc02ed9d693a074039d026cf4ea4240b40f7d581ac8020180546001600160a01b038781166001600160a01b03199283161790925560108054928716929091169190911790556012839055805460ff831660ff19909116179055610112308961011f565b505050505050505061058f565b6001600160a01b03821661014e5760405163ec442f0560e01b8152600060048201526024015b60405180910390fd5b61015a6000838361015e565b5050565b6001600160a01b03831661018957806002600082825461017e9190610568565b909155506101fb9050565b6001600160a01b038316600090815260208190526040902054818110156101dc5760405163391434e360e21b81526001600160a01b03851660048201526024810182905260448101839052606401610145565b6001600160a01b03841660009081526020819052604090209082900390555b6001600160a01b03821661021757600280548290039055610236565b6001600160a01b03821660009081526020819052604090208054820190555b816001600160a01b0316836001600160a01b03167fddf252ad1be2c89b69c2b068fc378daa952ba7f163c4a11628f55a4df523b3ef8360405161027b91815260200190565b60405180910390a3505050565b634e487b7160e01b600052604160045260246000fd5b600082601f8301126102af57600080fd5b81516001600160401b038111156102c8576102c8610288565b604051601f8201601f19908116603f011681016001600160401b03811182821017156102f6576102f6610288565b60405281815283820160200185101561030e57600080fd5b60005b8281101561032d57602081860181015183830182015201610311565b506000918101602001919091529392505050565b80516001600160a01b038116811461035857600080fd5b919050565b600080600080600080600080610100898b03121561037a57600080fd5b885160208a015160408b015191995097506001600160401b0381111561039f57600080fd5b6103ab8b828c0161029e565b60608b015190975090506001600160401b038111156103c957600080fd5b6103d58b828c0161029e565b9550506103e460808a01610341565b93506103f260a08a01610341565b60c08a015160e08b0151919450925060ff8116811461041057600080fd5b809150509295985092959890939650565b600181811c9082168061043557607f821691505b60208210810361045557634e487b7160e01b600052602260045260246000fd5b50919050565b601f8211156104a557806000526020600020601f840160051c810160208510156104825750805b601f840160051c820191505b818110156104a2576000815560010161048e565b50505b505050565b81516001600160401b038111156104c3576104c3610288565b6104d7816104d18454610421565b8461045b565b6020601f82116001811461050b57600083156104f35750848201515b600019600385901b1c1916600184901b1784556104a2565b600084815260208120601f198516915b8281101561053b578785015182556020948501946001909201910161051b565b50848210156105595786840151600019600387901b60f8161c191681555b50505050600190811b01905550565b8082018082111561058957634e487b7160e01b600052601160045260246000fd5b92915050565b6138128061059e6000396000f3fe60806040526004361061021a5760003560e01c8063730412e811610123578063a9059cbb116100ab578063d6eec7901161006f578063d6eec79014610600578063d821f81a14610615578063dd62ed3e14610635578063ee36d4ab1461067b578063f81e55f71461068e57600080fd5b8063a9059cbb14610569578063ae35f55014610589578063b3035780146105a9578063be5d147f146105be578063d2786ba4146105de57600080fd5b806386de13d0116100f257806386de13d0146104d057806395d89b41146104fd5780639e9aed6214610512578063a0e67e2b14610527578063a4406bcd1461054957600080fd5b8063730412e81461044e5780637c50b9901461046357806383920e9014610478578063861eec661461049e57600080fd5b8063313ce567116101a65780634cd0e75d116101755780634cd0e75d146103a2578063527821e2146103c25780635b1dac60146103d757806364227170146103ec57806370a082311461041857600080fd5b8063313ce56714610336578063377c6f7c14610358578063378dc3dc1461036d578063466ccac01461038357600080fd5b80631a46e42a116101ed5780631a46e42a146102b257806320b08dc2146102d457806323b872dd146102e95780632e98613e146103095780632eba8abd1461032e57600080fd5b806306fdde031461021f578063095ea7b31461024a5780630eae85731461027a57806318160ddd1461029d575b600080fd5b34801561022b57600080fd5b506102346106a3565b6040516102419190613067565b60405180910390f35b34801561025657600080fd5b5061026a610265366004613096565b610735565b6040519015158152602001610241565b34801561028657600080fd5b5061028f61074f565b604051908152602001610241565b3480156102a957600080fd5b5060025461028f565b3480156102be57600080fd5b506102d26102cd3660046130c0565b61079b565b005b3480156102e057600080fd5b5061026a61091b565b3480156102f557600080fd5b5061026a6103043660046130d9565b61094b565b34801561031557600080fd5b5061031e61096f565b6040516102419493929190613152565b6102d2610c44565b34801561034257600080fd5b5060135460405160ff9091168152602001610241565b34801561036457600080fd5b506102d2610dde565b34801561037957600080fd5b5061028f600c5481565b34801561038f57600080fd5b50600e5461026a90610100900460ff1681565b3480156103ae57600080fd5b506102d26103bd366004613096565b610e2c565b3480156103ce57600080fd5b5061028f610f79565b3480156103e357600080fd5b5061028f610fbf565b3480156103f857600080fd5b5060135461040b90610100900460ff1681565b60405161024191906131c0565b34801561042457600080fd5b5061028f6104333660046131da565b6001600160a01b031660009081526020819052604090205490565b34801561045a57600080fd5b5061031e611057565b34801561046f57600080fd5b506102d261131c565b34801561048457600080fd5b5061048d611367565b604051610241959493929190613230565b3480156104aa57600080fd5b506104be6104b93660046131da565b611686565b6040516102419695949392919061329d565b3480156104dc57600080fd5b506104e5611ac3565b6040516102419c9b9a99989796959493929190613372565b34801561050957600080fd5b50610234611c05565b34801561051e57600080fd5b5061028f611c14565b34801561053357600080fd5b5061053c611c7b565b6040516102419190613407565b34801561055557600080fd5b5061028f61056436600461341a565b611cdc565b34801561057557600080fd5b5061026a610584366004613096565b611e61565b34801561059557600080fd5b506104be6105a43660046131da565b611e6f565b3480156105b557600080fd5b5061028f612295565b3480156105ca57600080fd5b506102d26105d93660046130c0565b612324565b3480156105ea57600080fd5b506105f361245c565b604051610241919061343c565b34801561060c57600080fd5b5061028f61250f565b34801561062157600080fd5b506102d2610630366004613465565b612572565b34801561064157600080fd5b5061028f61065036600461351b565b6001600160a01b03918216600090815260016020908152604080832093909416825291909152205490565b61028f61068936600461341a565b6125bf565b34801561069a57600080fd5b50610234612722565b6060600380546106b29061354e565b80601f01602080910402602001604051908101604052809291908181526020018280546106de9061354e565b801561072b5780601f106107005761010080835404028352916020019161072b565b820191906000526020600020905b81548152906001019060200180831161070e57829003601f168201915b5050505050905090565b6000336107438185856127b4565b60019150505b92915050565b600080805b6009548160ff1610156107955760ff81166000908152600760205260409020600301546107819083613598565b91508061078d816135ab565b915050610754565b50919050565b6000818152600860205260409020546001600160a01b031633146108065760405162461bcd60e51b815260206004820152601d60248201527f6d73672e73656e646572206973206e6f74206f72646572206f776e657200000060448201526064015b60405180910390fd5b60008181526008602052604081206004015460ff16600281111561082c5761082c6131aa565b1461086d5760405162461bcd60e51b815260206004820152601160248201527037b93232b91034b9903737ba1037b832b760791b60448201526064016107fd565b600081815260086020526040908190206004808201805460ff191660021790558154600390920154925163a9059cbb60e01b81526001600160a01b03909216908201526024810191909152309063a9059cbb906044016020604051808303816000875af11580156108e2573d6000803e3d6000fd5b505050506040513d601f19601f8201168201806040525081019061090691906135ca565b50600090815260086020526040812060030155565b600080601354610100900460ff16600381111561093a5761093a6131aa565b036109455750600190565b50600090565b6000336109598582856127c1565b61096485858561283f565b506001949350505050565b6060806060806000805b6009548160ff1610156109d657600060ff8083166000908152600760205260409020600401541660028111156109b1576109b16131aa565b036109c4576109c16001836135ec565b91505b806109ce816135ab565b915050610979565b5060008160ff166001600160401b038111156109f4576109f461344f565b604051908082528060200260200182016040528015610a1d578160200160208202803683370190505b50905060008260ff166001600160401b03811115610a3d57610a3d61344f565b604051908082528060200260200182016040528015610a66578160200160208202803683370190505b50905060008360ff166001600160401b03811115610a8657610a8661344f565b604051908082528060200260200182016040528015610aaf578160200160208202803683370190505b50905060008460ff166001600160401b03811115610acf57610acf61344f565b604051908082528060200260200182016040528015610af8578160200160208202803683370190505b5090506000945060005b6009548160ff161015610c3457600060ff808316600090815260076020526040902060040154166002811115610b3a57610b3a6131aa565b03610c2257600760008260ff16815260200190815260200160002060010154858760ff1681518110610b6e57610b6e613605565b602002602001018181525050600760008260ff16815260200190815260200160002060020154848760ff1681518110610ba957610ba9613605565b602002602001018181525050600760008260ff16815260200190815260200160002060030154838760ff1681518110610be457610be4613605565b6020026020010181815250508060ff16828760ff1681518110610c0957610c09613605565b602090810291909101015285610c1e816135ab565b9650505b80610c2c816135ab565b915050610b02565b5092989197509550909350915050565b6000601354610100900460ff166003811115610c6257610c626131aa565b14610c9e5760405162461bcd60e51b815260206004820152600c60248201526b4e4f5420464f522053414c4560a01b60448201526064016107fd565b6013805461ff0019166102001790556000610cb7612295565b9050803414610cfa5760405162461bcd60e51b815260206004820152600f60248201526e496e636f727265637420507269636560881b60448201526064016107fd565b6013805461ff001916610300179055601154600f8054600092908110610d2257610d22613605565b60009182526020822001546040516001600160a01b03909116925082913480156108fc02929091818181858888f19350505050158015610d66573d6000803e3d6000fd5b50600f80546001818101835560009283527f8d1108e10bcb7c27dddfc02ed9d693a074039d026cf4ea4240b40f7d581ac80290910180546001600160a01b031916331790556011805491929091610dbe908490613598565b9091555050601380546001919061ff001916610100835b02179055505050565b600f60115481548110610df357610df3613605565b6000918252602090912001546001600160a01b03163314610e1357600080fd5b601380546000919061ff001916610100835b0217905550565b600f60115481548110610e4157610e41613605565b6000918252602090912001546001600160a01b03163314610e6157600080fd5b6040516370a0823160e01b8152306004820181905282916370a0823190602401602060405180830381865afa158015610e9e573d6000803e3d6000fd5b505050506040513d601f19601f82011682018060405250810190610ec2919061361b565b11610f035760405162461bcd60e51b81526020600482015260116024820152704e6f7420456e6f75676820546f6b656e7360781b60448201526064016107fd565b60405163a9059cbb60e01b81526001600160a01b038316600482015260248101829052309063a9059cbb906044016020604051808303816000875af1158015610f50573d6000803e3d6000fd5b505050506040513d601f19601f82011682018060405250810190610f7491906135ca565b505050565b600080805b600a548160ff1610156107955760ff8116600090815260086020526040902060030154610fab9083613598565b915080610fb7816135ab565b915050610f7e565b6000806000610fcc611367565b505050915091506000808351111561103d578160018351610fed9190613634565b81518110610ffd57610ffd613605565b602002602001015183600185516110149190613634565b8151811061102457611024613605565b60200260200101516110369190613647565b9050611050565b600c54600d5461104d9190613647565b90505b9392505050565b6060806060806000805b600a548160ff1610156110be57600060ff808316600090815260086020526040902060040154166002811115611099576110996131aa565b036110ac57816110a8816135ab565b9250505b806110b6816135ab565b915050611061565b5060008160ff166001600160401b038111156110dc576110dc61344f565b604051908082528060200260200182016040528015611105578160200160208202803683370190505b50905060008260ff166001600160401b038111156111255761112561344f565b60405190808252806020026020018201604052801561114e578160200160208202803683370190505b50905060008360ff166001600160401b0381111561116e5761116e61344f565b604051908082528060200260200182016040528015611197578160200160208202803683370190505b50905060008460ff166001600160401b038111156111b7576111b761344f565b6040519080825280602002602001820160405280156111e0578160200160208202803683370190505b5090506000945060005b600a548160ff161015610c3457600060ff808316600090815260086020526040902060040154166002811115611222576112226131aa565b0361130a57600860008260ff16815260200190815260200160002060010154858760ff168151811061125657611256613605565b602002602001018181525050600860008260ff16815260200190815260200160002060020154848760ff168151811061129157611291613605565b602002602001018181525050600860008260ff16815260200190815260200160002060030154838760ff16815181106112cc576112cc613605565b6020026020010181815250508060ff16828760ff16815181106112f1576112f1613605565b602090810291909101015285611306816135ab565b9650505b80611314816135ab565b9150506111ea565b600f6011548154811061133157611331613605565b6000918252602090912001546001600160a01b0316331461135157600080fd5b601380546001919061ff00191661010083610e25565b60608060608060606000805b6006548160ff1610156113a0578161138a81613669565b9250508080611398906135ab565b915050611373565b506000816001600160401b038111156113bb576113bb61344f565b6040519080825280602002602001820160405280156113e4578160200160208202803683370190505b5090506000826001600160401b038111156114015761140161344f565b60405190808252806020026020018201604052801561142a578160200160208202803683370190505b5090506000836001600160401b038111156114475761144761344f565b604051908082528060200260200182016040528015611470578160200160208202803683370190505b5090506000846001600160401b0381111561148d5761148d61344f565b6040519080825280602002602001820160405280156114b6578160200160208202803683370190505b5090506000856001600160401b038111156114d3576114d361344f565b6040519080825280602002602001820160405280156114fc578160200160208202803683370190505b5090506000955060005b6006548160ff1610156116735760ff8116600090815260056020526040902054865187908990811061153a5761153a613605565b602002602001018181525050600560008260ff1681526020019081526020016000206001015485888151811061157257611572613605565b602002602001018181525050600560008260ff168152602001908152602001600020600601548488815181106115aa576115aa613605565b602002602001018181525050600560008260ff16815260200190815260200160002060040160009054906101000a90046001600160a01b03168388815181106115f5576115f5613605565b6001600160a01b0392831660209182029290920181019190915260ff83166000908152600591829052604090200154835191169083908990811061163b5761163b613605565b6001600160a01b03909216602092830291909101909101528661165d81613669565b975050808061166b906135ab565b915050611506565b50939a9299509097509550909350915050565b6060806060806060806000805b6009548160ff1610156116e55760ff81166000908152600760205260409020546001600160a01b03808b169116036116d357816116cf816135ab565b9250505b806116dd816135ab565b915050611693565b5060008160ff166001600160401b038111156117035761170361344f565b60405190808252806020026020018201604052801561172c578160200160208202803683370190505b50905060008260ff166001600160401b0381111561174c5761174c61344f565b604051908082528060200260200182016040528015611775578160200160208202803683370190505b50905060008360ff166001600160401b038111156117955761179561344f565b6040519080825280602002602001820160405280156117be578160200160208202803683370190505b50905060008460ff166001600160401b038111156117de576117de61344f565b604051908082528060200260200182016040528015611807578160200160208202803683370190505b50905060008560ff166001600160401b038111156118275761182761344f565b604051908082528060200260200182016040528015611850578160200160208202803683370190505b50905060008660ff166001600160401b038111156118705761187061344f565b604051908082528060200260200182016040528015611899578160200160208202803683370190505b5090506000965060005b6009548160ff161015611aac578e6001600160a01b0316600760008360ff16815260200190815260200160002060000160009054906101000a90046001600160a01b03166001600160a01b031603611a9a5760ff80821660009081526007602052604090205488516001600160a01b03909116918991908b1690811061192b5761192b613605565b60200260200101906001600160a01b031690816001600160a01b031681525050600760008260ff16815260200190815260200160002060010154868960ff168151811061197a5761197a613605565b602002602001018181525050600760008260ff16815260200190815260200160002060020154858960ff16815181106119b5576119b5613605565b602002602001018181525050600760008260ff16815260200190815260200160002060030154848960ff16815181106119f0576119f0613605565b6020026020010181815250508060ff16838960ff1681518110611a1557611a15613605565b602002602001018181525050600760008260ff16815260200190815260200160002060040160009054906101000a900460ff16828960ff1681518110611a5d57611a5d613605565b60200260200101906002811115611a7657611a766131aa565b90816002811115611a8957611a896131aa565b90525087611a96816135ab565b9850505b80611aa4816135ab565b9150506118a3565b50949d939c50919a50985091965090945092505050565b6060611adb6040518060200160405280606081525090565b606080600080600080600080600080611af2611c7b565b600b611afc6106a3565b611b04611c05565b600254611b0f612295565b611b17610fbf565b611b1f611c14565b611b2761091b565b611b2f610f79565b611b3761074f565b611b3f61250f565b8a604051806020016040529081600082018054611b5b9061354e565b80601f0160208091040260200160405190810160405280929190818152602001828054611b879061354e565b8015611bd45780601f10611ba957610100808354040283529160200191611bd4565b820191906000526020600020905b815481529060010190602001808311611bb757829003601f168201915b5050505050815250509a509b509b509b509b509b509b509b509b509b509b509b509b50909192939495969798999a9b565b6060600480546106b29061354e565b6040516370a0823160e01b815230600482018190526000916370a0823190602401602060405180830381865afa158015611c52573d6000803e3d6000fd5b505050506040513d601f19601f82011682018060405250810190611c76919061361b565b905090565b6060600f80548060200260200160405190810160405280929190818152602001828054801561072b57602002820191906000526020600020905b81546001600160a01b03168152600190910190602001808311611cb5575050505050905090565b6000808311611cfd5760405162461bcd60e51b81526004016107fd90613682565b60008211611d1d5760405162461bcd60e51b81526004016107fd90613682565b6040516323b872dd60e01b8152336004820152306024820181905260448201859052906323b872dd906064016020604051808303816000875af1158015611d68573d6000803e3d6000fd5b505050506040513d601f19601f82011682018060405250810190611d8c91906135ca565b506040805160a081018252338152602080820186815282840186815260608401888152600060808601818152600a548252600890955295909520845181546001600160a01b0319166001600160a01b0390911617815591516001808401919091559051600280840191909155945160038301559151600482018054949592949193909260ff19909216918490811115611e2757611e276131aa565b0217905550905050611e3a600a5461289e565b6001600a6000828254611e4d9190613598565b9091555050600a5461105090600190613634565b60003361074381858561283f565b6060806060806060806000805b600a548160ff161015611ece5760ff81166000908152600860205260409020546001600160a01b03808b16911603611ebc5781611eb8816135ab565b9250505b80611ec6816135ab565b915050611e7c565b5060008160ff166001600160401b03811115611eec57611eec61344f565b604051908082528060200260200182016040528015611f15578160200160208202803683370190505b50905060008260ff166001600160401b03811115611f3557611f3561344f565b604051908082528060200260200182016040528015611f5e578160200160208202803683370190505b50905060008360ff166001600160401b03811115611f7e57611f7e61344f565b604051908082528060200260200182016040528015611fa7578160200160208202803683370190505b50905060008460ff166001600160401b03811115611fc757611fc761344f565b604051908082528060200260200182016040528015611ff0578160200160208202803683370190505b50905060008560ff166001600160401b038111156120105761201061344f565b604051908082528060200260200182016040528015612039578160200160208202803683370190505b50905060008660ff166001600160401b038111156120595761205961344f565b604051908082528060200260200182016040528015612082578160200160208202803683370190505b5090506000965060005b600a548160ff161015611aac578e6001600160a01b0316600860008360ff16815260200190815260200160002060000160009054906101000a90046001600160a01b03166001600160a01b0316036122835760ff80821660009081526008602052604090205488516001600160a01b03909116918991908b1690811061211457612114613605565b60200260200101906001600160a01b031690816001600160a01b031681525050600860008260ff16815260200190815260200160002060010154868960ff168151811061216357612163613605565b602002602001018181525050600860008260ff16815260200190815260200160002060020154858960ff168151811061219e5761219e613605565b602002602001018181525050600860008260ff16815260200190815260200160002060030154848960ff16815181106121d9576121d9613605565b602002602001018181525050600860008260ff16815260200190815260200160002060040160009054906101000a900460ff16828960ff168151811061222157612221613605565b6020026020010190600281111561223a5761223a6131aa565b9081600281111561224d5761224d6131aa565b815250508060ff16838960ff168151811061226a5761226a613605565b60209081029190910101528761227f816135ab565b9850505b8061228d816135ab565b91505061208c565b60008060006122a2611367565b505050915091506000808351111561231957600c5482600184516122c69190613634565b815181106122d6576122d6613605565b602002602001015184600186516122ed9190613634565b815181106122fd576122fd613605565b602002602001015161230f9190613647565b61103691906136b9565b50600d549392505050565b6000818152600760205260409020546001600160a01b0316331461238a5760405162461bcd60e51b815260206004820152601d60248201527f6d73672e73656e646572206973206e6f74206f72646572206f776e657200000060448201526064016107fd565b60008181526007602052604081206004015460ff1660028111156123b0576123b06131aa565b146123f15760405162461bcd60e51b815260206004820152601160248201527037b93232b91034b9903737ba1037b832b760791b60448201526064016107fd565b6000818152600760205260408082206003015490513392839280156108fc02929091818181858888f19350505050158015612430573d6000803e3d6000fd5b506000828152600760205260408120600381019190915560040180546002919060ff1916600183610dd5565b604080516020810190915260608152600b6040518060200160405290816000820180546124889061354e565b80601f01602080910402602001604051908101604052809291908181526020018280546124b49061354e565b80156125015780601f106124d657610100808354040283529160200191612501565b820191906000526020600020905b8154815290600101906020018083116124e457829003601f168201915b505050505081525050905090565b60008061251a611057565b50925050506000805b82518160ff16101561256b57828160ff168151811061254457612544613605565b6020026020010151826125579190613598565b915080612563816135ab565b915050612523565b5092915050565b600f6011548154811061258757612587613605565b6000918252602090912001546001600160a01b031633146125a757600080fd5b8051156125bc57600b6125ba828261371e565b505b50565b60008083116125e05760405162461bcd60e51b81526004016107fd90613682565b600082116126005760405162461bcd60e51b81526004016107fd90613682565b8161260b8434613647565b1461264d5760405162461bcd60e51b815260206004820152601260248201527131b0b7103737ba1036b0b5b29037b93232b960711b60448201526064016107fd565b6040805160a081018252338152602080820186815282840186815234606085019081526000608086018181526009548252600790955295909520845181546001600160a01b0319166001600160a01b0390911617815591516001808401919091559051600280840191909155945160038301559151600482018054949592949193909260ff199092169184908111156126e8576126e86131aa565b02179055509050506126fb6009546128cd565b60016009600082825461270e9190613598565b909155505060095461105090600190613634565b600b805481906127319061354e565b80601f016020809104026020016040519081016040528092919081815260200182805461275d9061354e565b80156127aa5780601f1061277f576101008083540402835291602001916127aa565b820191906000526020600020905b81548152906001019060200180831161278d57829003601f168201915b5050505050905081565b610f7483838360016128fc565b6001600160a01b038381166000908152600160209081526040808320938616835292905220546000198114612839578181101561282a57604051637dc7a0d960e11b81526001600160a01b038416600482015260248101829052604481018390526064016107fd565b612839848484840360006128fc565b50505050565b6001600160a01b03831661286957604051634b637e8f60e11b8152600060048201526024016107fd565b6001600160a01b0382166128935760405163ec442f0560e01b8152600060048201526024016107fd565b610f748383836129d1565b60005b6009548160ff1610156125ba576128bb828260ff16612afb565b806128c5816135ab565b9150506128a1565b60005b600a548160ff1610156125ba576128ea8160ff1683612afb565b806128f4816135ab565b9150506128d0565b6001600160a01b0384166129265760405163e602df0560e01b8152600060048201526024016107fd565b6001600160a01b03831661295057604051634a1406b160e11b8152600060048201526024016107fd565b6001600160a01b038085166000908152600160209081526040808320938716835292905220829055801561283957826001600160a01b0316846001600160a01b03167f8c5be1e5ebec7d5bd14f71427d1e84f3dd0314c0f7b2291e5b200ac8c7c3b925846040516129c391815260200190565b60405180910390a350505050565b6001600160a01b0383166129fc5780600260008282546129f19190613598565b90915550612a6e9050565b6001600160a01b03831660009081526020819052604090205481811015612a4f5760405163391434e360e21b81526001600160a01b038516600482015260248101829052604481018390526064016107fd565b6001600160a01b03841660009081526020819052604090209082900390555b6001600160a01b038216612a8a57600280548290039055612aa9565b6001600160a01b03821660009081526020819052604090208054820190555b816001600160a01b0316836001600160a01b03167fddf252ad1be2c89b69c2b068fc378daa952ba7f163c4a11628f55a4df523b3ef83604051612aee91815260200190565b60405180910390a3505050565b60008281526008602052604081206004015460ff166002811115612b2157612b216131aa565b036125ba5760008181526007602052604081206004015460ff166002811115612b4c57612b4c6131aa565b036125ba5760008181526007602090815260408083206002908101548685526008909352922090910154036125ba57600082815260086020818152604080842080548686526007845291852060010154878652939092526003909101546001600160a01b03909116929111612c5657600083815260076020908152604080832060010154878452600890925290912060030154612be99190613634565b600085815260086020818152604080842060030194855587845260078252832060018082018054908690556004909201805460ff19169091179055888452919052915491925003612c51576000848152600860205260409020600401805460ff191660011790555b612d48565b60008481526008602052604090206003810154600290910154612c7991906136b9565b600084815260076020526040902060030154612c959190613634565b600084815260076020818152604080842060038082019690965589855260088352908420909401549287905252600190910154612cd29190613634565b60008481526007602090815260408083206001908101949094558783526008909152812060038101805492905560040180549193509060ff1916828002179055506000838152600760205260408120600301549003612d48576000838152600760205260409020600401805460ff191660011790555b60125415612e63576010546012546000858152600760205260409020600201546001600160a01b039092169182916108fc9161271090612d899087906136b9565b612d939190613647565b612d9d91906136b9565b6040518115909202916000818181858888f19350505050158015612dc5573d6000803e3d6000fd5b506012546000858152600760205260409020600201546001600160a01b038516916108fc9161271090612df99087906136b9565b612e039190613647565b612e0d91906136b9565b600087815260076020526040902060020154612e2a9086906136b9565b612e349190613634565b6040518115909202916000818181858888f19350505050158015612e5c573d6000803e3d6000fd5b5050612eb9565b6000838152600760205260409020600201546001600160a01b038316906108fc90612e8f9084906136b9565b6040518115909202916000818181858888f19350505050158015612eb7573d6000803e3d6000fd5b505b6000838152600760205260409081902054905163a9059cbb60e01b81526001600160a01b03909116600482015260248101829052309063a9059cbb906044016020604051808303816000875af1158015612f17573d6000803e3d6000fd5b505050506040513d601f19601f82011682018060405250810190612f3b91906135ca565b5060008381526007602052604090206002015461283990612f5d9083906136b9565b600085815260076020908152604080832054898452600883528184205460068054865260059485905283862087905580548652838620600101899055805486528386204290820155805486528386206002018b9055805486528386206003018c90558054865283862060040180546001600160a01b039485166001600160a01b03199182168117909255825488529487209095018054939092169290931682179055815487948a948c949093929161301483613669565b9190505550505050505050565b6000815180845260005b818110156130475760208185018101518683018201520161302b565b506000602082860101526020601f19601f83011685010191505092915050565b6020815260006110506020830184613021565b80356001600160a01b038116811461309157600080fd5b919050565b600080604083850312156130a957600080fd5b6130b28361307a565b946020939093013593505050565b6000602082840312156130d257600080fd5b5035919050565b6000806000606084860312156130ee57600080fd5b6130f78461307a565b92506131056020850161307a565b929592945050506040919091013590565b600081518084526020840193506020830160005b8281101561314857815186526020958601959091019060010161312a565b5093949350505050565b6080815260006131656080830187613116565b82810360208401526131778187613116565b9050828103604084015261318b8186613116565b9050828103606084015261319f8185613116565b979650505050505050565b634e487b7160e01b600052602160045260246000fd5b60208101600483106131d4576131d46131aa565b91905290565b6000602082840312156131ec57600080fd5b6110508261307a565b600081518084526020840193506020830160005b828110156131485781516001600160a01b0316865260209586019590910190600101613209565b60a08152600061324360a0830188613116565b82810360208401526132558188613116565b905082810360408401526132698187613116565b9050828103606084015261327d81866131f5565b9050828103608084015261329181856131f5565b98975050505050505050565b60c0815260006132b060c08301896131f5565b82810360208401526132c28189613116565b905082810360408401526132d68188613116565b905082810360608401526132ea8187613116565b83810360808501528551808252602080880193509091019060005b818110156133335783516003811061331f5761331f6131aa565b835260209384019390920191600101613305565b505083810360a08501526133478186613116565b9a9950505050505050505050565b600081516020845261336a6020850182613021565b949350505050565b6101808152600061338761018083018f6131f5565b8281036020840152613399818f613355565b905082810360408401526133ad818e613021565b905082810360608401526133c1818d613021565b608084019b909b52505060a081019790975260c087019590955260e086019390935290151561010085015261012084015261014083015261016090910152949350505050565b60208152600061105060208301846131f5565b6000806040838503121561342d57600080fd5b50508035926020909101359150565b6020815260006110506020830184613355565b634e487b7160e01b600052604160045260246000fd5b60006020828403121561347757600080fd5b81356001600160401b0381111561348d57600080fd5b8201601f8101841361349e57600080fd5b80356001600160401b038111156134b7576134b761344f565b604051601f8201601f19908116603f011681016001600160401b03811182821017156134e5576134e561344f565b6040528181528282016020018610156134fd57600080fd5b81602084016020830137600091810160200191909152949350505050565b6000806040838503121561352e57600080fd5b6135378361307a565b91506135456020840161307a565b90509250929050565b600181811c9082168061356257607f821691505b60208210810361079557634e487b7160e01b600052602260045260246000fd5b634e487b7160e01b600052601160045260246000fd5b8082018082111561074957610749613582565b600060ff821660ff81036135c1576135c1613582565b60010192915050565b6000602082840312156135dc57600080fd5b8151801515811461105057600080fd5b60ff818116838216019081111561074957610749613582565b634e487b7160e01b600052603260045260246000fd5b60006020828403121561362d57600080fd5b5051919050565b8181038181111561074957610749613582565b60008261366457634e487b7160e01b600052601260045260246000fd5b500490565b60006001820161367b5761367b613582565b5060010190565b60208082526018908201527f73686172652076616c75652063616e206e6f7420626520300000000000000000604082015260600190565b808202811582820484141761074957610749613582565b601f821115610f7457806000526020600020601f840160051c810160208510156136f75750805b601f840160051c820191505b818110156137175760008155600101613703565b5050505050565b81516001600160401b038111156137375761373761344f565b61374b81613745845461354e565b846136d0565b6020601f82116001811461377f57600083156137675750848201515b600019600385901b1c1916600184901b178455613717565b600084815260208120601f198516915b828110156137af578785015182556020948501946001909201910161378f565b50848210156137cd5786840151600019600387901b60f8161c191681555b50505050600190811b0190555056fea264697066735822122007a68854028246046a5ac47fb841879ea0ad0c61e97bddc7308015ce96fe426e64736f6c634300081b0033",
  "linkReferences": {},
  "deployedLinkReferences": {}
}