{
  "_format": "hh-sol-artifact-1",
  "contractName": "LCTokenNFT",
  "sourceName": "contracts/tokenNFT.sol",
  "abi": [
    {
      "inputs": [
        {
          "internalType": "string",
          "name": "_name",
          "type": "string"
        },
        {
          "internalType": "uint256",
          "name": "_initialSupply",
          "type": "uint256"
        },
        {
          "internalType": "uint256",
          "name": "_salePrice",
          "type": "uint256"
        },
        {
          "internalType": "string",
          "name": "_tokenSymbol",
          "type": "string"
        },
        {
          "internalType": "address",
          "name": "_ownerAddress",
          "type": "address"
        },
        {
          "internalType": "address",
          "name": "_marginBank",
          "type": "address"
        },
        {
          "internalType": "uint256",
          "name": "_margin",
          "type": "uint256"
        },
        {
          "internalType": "string",
          "name": "_uri",
          "type": "string"
        }
      ],
      "stateMutability": "nonpayable",
      "type": "constructor"
    },
    {
      "inputs": [
        {
          "internalType": "address",
          "name": "sender",
          "type": "address"
        },
        {
          "internalType": "uint256",
          "name": "tokenId",
          "type": "uint256"
        },
        {
          "internalType": "address",
          "name": "owner",
          "type": "address"
        }
      ],
      "name": "ERC721IncorrectOwner",
      "type": "error"
    },
    {
      "inputs": [
        {
          "internalType": "address",
          "name": "operator",
          "type": "address"
        },
        {
          "internalType": "uint256",
          "name": "tokenId",
          "type": "uint256"
        }
      ],
      "name": "ERC721InsufficientApproval",
      "type": "error"
    },
    {
      "inputs": [
        {
          "internalType": "address",
          "name": "approver",
          "type": "address"
        }
      ],
      "name": "ERC721InvalidApprover",
      "type": "error"
    },
    {
      "inputs": [
        {
          "internalType": "address",
          "name": "operator",
          "type": "address"
        }
      ],
      "name": "ERC721InvalidOperator",
      "type": "error"
    },
    {
      "inputs": [
        {
          "internalType": "address",
          "name": "owner",
          "type": "address"
        }
      ],
      "name": "ERC721InvalidOwner",
      "type": "error"
    },
    {
      "inputs": [
        {
          "internalType": "address",
          "name": "receiver",
          "type": "address"
        }
      ],
      "name": "ERC721InvalidReceiver",
      "type": "error"
    },
    {
      "inputs": [
        {
          "internalType": "address",
          "name": "sender",
          "type": "address"
        }
      ],
      "name": "ERC721InvalidSender",
      "type": "error"
    },
    {
      "inputs": [
        {
          "internalType": "uint256",
          "name": "tokenId",
          "type": "uint256"
        }
      ],
      "name": "ERC721NonexistentToken",
      "type": "error"
    },
    {
      "inputs": [
        {
          "internalType": "address",
          "name": "owner",
          "type": "address"
        }
      ],
      "name": "OwnableInvalidOwner",
      "type": "error"
    },
    {
      "inputs": [
        {
          "internalType": "address",
          "name": "account",
          "type": "address"
        }
      ],
      "name": "OwnableUnauthorizedAccount",
      "type": "error"
    },
    {
      "anonymous": false,
      "inputs": [
        {
          "indexed": true,
          "internalType": "address",
          "name": "owner",
          "type": "address"
        },
        {
          "indexed": true,
          "internalType": "address",
          "name": "approved",
          "type": "address"
        },
        {
          "indexed": true,
          "internalType": "uint256",
          "name": "tokenId",
          "type": "uint256"
        }
      ],
      "name": "Approval",
      "type": "event"
    },
    {
      "anonymous": false,
      "inputs": [
        {
          "indexed": true,
          "internalType": "address",
          "name": "owner",
          "type": "address"
        },
        {
          "indexed": true,
          "internalType": "address",
          "name": "operator",
          "type": "address"
        },
        {
          "indexed": false,
          "internalType": "bool",
          "name": "approved",
          "type": "bool"
        }
      ],
      "name": "ApprovalForAll",
      "type": "event"
    },
    {
      "anonymous": false,
      "inputs": [
        {
          "indexed": true,
          "internalType": "address",
          "name": "previousOwner",
          "type": "address"
        },
        {
          "indexed": true,
          "internalType": "address",
          "name": "newOwner",
          "type": "address"
        }
      ],
      "name": "OwnershipTransferred",
      "type": "event"
    },
    {
      "anonymous": false,
      "inputs": [
        {
          "indexed": true,
          "internalType": "address",
          "name": "from",
          "type": "address"
        },
        {
          "indexed": true,
          "internalType": "address",
          "name": "to",
          "type": "address"
        },
        {
          "indexed": true,
          "internalType": "uint256",
          "name": "tokenId",
          "type": "uint256"
        }
      ],
      "name": "Transfer",
      "type": "event"
    },
    {
      "inputs": [],
      "name": "_URI",
      "outputs": [
        {
          "internalType": "string",
          "name": "",
          "type": "string"
        }
      ],
      "stateMutability": "view",
      "type": "function"
    },
    {
      "inputs": [
        {
          "internalType": "address",
          "name": "to",
          "type": "address"
        },
        {
          "internalType": "uint256",
          "name": "tokenId",
          "type": "uint256"
        }
      ],
      "name": "approve",
      "outputs": [],
      "stateMutability": "nonpayable",
      "type": "function"
    },
    {
      "inputs": [
        {
          "internalType": "address",
          "name": "owner",
          "type": "address"
        }
      ],
      "name": "balanceOf",
      "outputs": [
        {
          "internalType": "uint256",
          "name": "",
          "type": "uint256"
        }
      ],
      "stateMutability": "view",
      "type": "function"
    },
    {
      "inputs": [
        {
          "internalType": "uint256",
          "name": "",
          "type": "uint256"
        }
      ],
      "name": "buyOrders",
      "outputs": [
        {
          "internalType": "address",
          "name": "orderOwner",
          "type": "address"
        },
        {
          "internalType": "uint256",
          "name": "tokenId",
          "type": "uint256"
        },
        {
          "internalType": "uint256",
          "name": "balance",
          "type": "uint256"
        },
        {
          "internalType": "enum LCTokenNFT.OrderState",
          "name": "state",
          "type": "uint8"
        }
      ],
      "stateMutability": "view",
      "type": "function"
    },
    {
      "inputs": [
        {
          "internalType": "uint256",
          "name": "id",
          "type": "uint256"
        }
      ],
      "name": "cancelBuyOffer",
      "outputs": [],
      "stateMutability": "nonpayable",
      "type": "function"
    },
    {
      "inputs": [
        {
          "internalType": "uint256",
          "name": "id",
          "type": "uint256"
        }
      ],
      "name": "cancelSellOrder",
      "outputs": [],
      "stateMutability": "nonpayable",
      "type": "function"
    },
    {
      "inputs": [
        {
          "internalType": "uint256",
          "name": "tokenId",
          "type": "uint256"
        }
      ],
      "name": "getApproved",
      "outputs": [
        {
          "internalType": "address",
          "name": "",
          "type": "address"
        }
      ],
      "stateMutability": "view",
      "type": "function"
    },
    {
      "inputs": [],
      "name": "getBuyOrders",
      "outputs": [
        {
          "internalType": "address[]",
          "name": "",
          "type": "address[]"
        },
        {
          "internalType": "uint256[]",
          "name": "",
          "type": "uint256[]"
        },
        {
          "internalType": "uint256[]",
          "name": "",
          "type": "uint256[]"
        },
        {
          "internalType": "uint256[]",
          "name": "",
          "type": "uint256[]"
        }
      ],
      "stateMutability": "view",
      "type": "function"
    },
    {
      "inputs": [],
      "name": "getSellOrders",
      "outputs": [
        {
          "internalType": "address[]",
          "name": "",
          "type": "address[]"
        },
        {
          "internalType": "uint256[]",
          "name": "",
          "type": "uint256[]"
        },
        {
          "internalType": "uint256[]",
          "name": "",
          "type": "uint256[]"
        },
        {
          "internalType": "uint256[]",
          "name": "",
          "type": "uint256[]"
        }
      ],
      "stateMutability": "view",
      "type": "function"
    },
    {
      "inputs": [],
      "name": "getTokenAll",
      "outputs": [
        {
          "internalType": "string",
          "name": "",
          "type": "string"
        },
        {
          "internalType": "string",
          "name": "",
          "type": "string"
        },
        {
          "internalType": "string",
          "name": "",
          "type": "string"
        },
        {
          "internalType": "uint256",
          "name": "",
          "type": "uint256"
        }
      ],
      "stateMutability": "view",
      "type": "function"
    },
    {
      "inputs": [
        {
          "internalType": "address",
          "name": "owner",
          "type": "address"
        },
        {
          "internalType": "address",
          "name": "operator",
          "type": "address"
        }
      ],
      "name": "isApprovedForAll",
      "outputs": [
        {
          "internalType": "bool",
          "name": "",
          "type": "bool"
        }
      ],
      "stateMutability": "view",
      "type": "function"
    },
    {
      "inputs": [],
      "name": "name",
      "outputs": [
        {
          "internalType": "string",
          "name": "",
          "type": "string"
        }
      ],
      "stateMutability": "view",
      "type": "function"
    },
    {
      "inputs": [],
      "name": "owner",
      "outputs": [
        {
          "internalType": "address",
          "name": "",
          "type": "address"
        }
      ],
      "stateMutability": "view",
      "type": "function"
    },
    {
      "inputs": [
        {
          "internalType": "uint256",
          "name": "tokenId",
          "type": "uint256"
        }
      ],
      "name": "ownerOf",
      "outputs": [
        {
          "internalType": "address",
          "name": "",
          "type": "address"
        }
      ],
      "stateMutability": "view",
      "type": "function"
    },
    {
      "inputs": [
        {
          "internalType": "uint256",
          "name": "tokenId",
          "type": "uint256"
        }
      ],
      "name": "placeBuyOrder",
      "outputs": [
        {
          "internalType": "uint256",
          "name": "",
          "type": "uint256"
        }
      ],
      "stateMutability": "payable",
      "type": "function"
    },
    {
      "inputs": [
        {
          "internalType": "uint256",
          "name": "tokenId",
          "type": "uint256"
        },
        {
          "internalType": "uint256",
          "name": "amount",
          "type": "uint256"
        }
      ],
      "name": "placeSellOrder",
      "outputs": [
        {
          "internalType": "uint256",
          "name": "",
          "type": "uint256"
        }
      ],
      "stateMutability": "nonpayable",
      "type": "function"
    },
    {
      "inputs": [],
      "name": "renounceOwnership",
      "outputs": [],
      "stateMutability": "nonpayable",
      "type": "function"
    },
    {
      "inputs": [
        {
          "internalType": "address",
          "name": "from",
          "type": "address"
        },
        {
          "internalType": "address",
          "name": "to",
          "type": "address"
        },
        {
          "internalType": "uint256",
          "name": "tokenId",
          "type": "uint256"
        }
      ],
      "name": "safeTransferFrom",
      "outputs": [],
      "stateMutability": "nonpayable",
      "type": "function"
    },
    {
      "inputs": [
        {
          "internalType": "address",
          "name": "from",
          "type": "address"
        },
        {
          "internalType": "address",
          "name": "to",
          "type": "address"
        },
        {
          "internalType": "uint256",
          "name": "tokenId",
          "type": "uint256"
        },
        {
          "internalType": "bytes",
          "name": "data",
          "type": "bytes"
        }
      ],
      "name": "safeTransferFrom",
      "outputs": [],
      "stateMutability": "nonpayable",
      "type": "function"
    },
    {
      "inputs": [],
      "name": "salePrice",
      "outputs": [
        {
          "internalType": "uint256",
          "name": "",
          "type": "uint256"
        }
      ],
      "stateMutability": "view",
      "type": "function"
    },
    {
      "inputs": [
        {
          "internalType": "uint256",
          "name": "",
          "type": "uint256"
        }
      ],
      "name": "sellOrders",
      "outputs": [
        {
          "internalType": "address",
          "name": "orderOwner",
          "type": "address"
        },
        {
          "internalType": "uint256",
          "name": "tokenId",
          "type": "uint256"
        },
        {
          "internalType": "uint256",
          "name": "balance",
          "type": "uint256"
        },
        {
          "internalType": "enum LCTokenNFT.OrderState",
          "name": "state",
          "type": "uint8"
        }
      ],
      "stateMutability": "view",
      "type": "function"
    },
    {
      "inputs": [
        {
          "internalType": "address",
          "name": "operator",
          "type": "address"
        },
        {
          "internalType": "bool",
          "name": "approved",
          "type": "bool"
        }
      ],
      "name": "setApprovalForAll",
      "outputs": [],
      "stateMutability": "nonpayable",
      "type": "function"
    },
    {
      "inputs": [
        {
          "internalType": "bytes4",
          "name": "interfaceId",
          "type": "bytes4"
        }
      ],
      "name": "supportsInterface",
      "outputs": [
        {
          "internalType": "bool",
          "name": "",
          "type": "bool"
        }
      ],
      "stateMutability": "view",
      "type": "function"
    },
    {
      "inputs": [],
      "name": "symbol",
      "outputs": [
        {
          "internalType": "string",
          "name": "",
          "type": "string"
        }
      ],
      "stateMutability": "view",
      "type": "function"
    },
    {
      "inputs": [
        {
          "internalType": "uint256",
          "name": "tokenId",
          "type": "uint256"
        }
      ],
      "name": "tokenURI",
      "outputs": [
        {
          "internalType": "string",
          "name": "",
          "type": "string"
        }
      ],
      "stateMutability": "view",
      "type": "function"
    },
    {
      "inputs": [
        {
          "internalType": "address",
          "name": "from",
          "type": "address"
        },
        {
          "internalType": "address",
          "name": "to",
          "type": "address"
        },
        {
          "internalType": "uint256",
          "name": "tokenId",
          "type": "uint256"
        }
      ],
      "name": "transferFrom",
      "outputs": [],
      "stateMutability": "nonpayable",
      "type": "function"
    },
    {
      "inputs": [
        {
          "internalType": "address",
          "name": "newOwner",
          "type": "address"
        }
      ],
      "name": "transferOwnership",
      "outputs": [],
      "stateMutability": "nonpayable",
      "type": "function"
    }
  ],
  "bytecode": "0x60806040526000600f55600060105534801561001a57600080fd5b50604051612f0e380380612f0e83398101604081905261003991610759565b838886600061004883826108ae565b50600161005582826108ae565b5050506001600160a01b03811661008757604051631e4fbdf760e01b8152600060048201526024015b60405180910390fd5b6100908161011a565b5060078790556009869055600a829055600b80546001600160a01b0319166001600160a01b038516179055600c6100c782826108ae565b5060005b6007548160ff16101561010c5760088054600091826100e983610982565b9091555090506100f9868261016c565b50806101048161099b565b9150506100cb565b505050505050505050610a43565b600680546001600160a01b038381166001600160a01b0319831681179093556040519116919082907f8be0079c531659141344cd1fd0a4f28419497f9722a3daafe3b4186f6b6457e090600090a35050565b61018c82826040518060200160405280600081525061019060201b60201c565b5050565b61019a83836101ad565b6101a8336000858585610211565b505050565b6001600160a01b0382166101d757604051633250574960e11b81526000600482015260240161007e565b60006101e483838361033c565b90506001600160a01b038116156101a8576040516339e3563760e11b81526000600482015260240161007e565b6001600160a01b0383163b1561033557604051630a85bd0160e11b81526001600160a01b0384169063150b7a02906102539088908890879087906004016109ba565b6020604051808303816000875af192505050801561028e575060408051601f3d908101601f1916820190925261028b91810190610a12565b60015b6102f7573d8080156102bc576040519150601f19603f3d011682016040523d82523d6000602084013e6102c1565b606091505b5080516000036102ef57604051633250574960e11b81526001600160a01b038516600482015260240161007e565b805181602001fd5b6001600160e01b03198116630a85bd0160e11b1461033357604051633250574960e11b81526001600160a01b038516600482015260240161007e565b505b5050505050565b6000828152600260205260408120546001600160a01b039081169083161561036957610369818486610434565b6001600160a01b038116156103a6576103856000858180610498565b6001600160a01b038116600090815260036020526040902080546000190190555b6001600160a01b038516156103d5576001600160a01b0385166000908152600360205260409020805460010190555b60008481526002602052604080822080546001600160a01b0319166001600160a01b0389811691821790925591518793918516917fddf252ad1be2c89b69c2b068fc378daa952ba7f163c4a11628f55a4df523b3ef91a4949350505050565b61043f8383836105bd565b6101a8576001600160a01b03831661046d57604051637e27328960e01b81526004810182905260240161007e565b60405163177e802f60e01b81526001600160a01b03831660048201526024810182905260440161007e565b80806104ac57506001600160a01b03821615155b1561058d5760006104bc84610643565b90506001600160a01b038316158015906104e85750826001600160a01b0316816001600160a01b031614155b801561051a57506001600160a01b0380821660009081526005602090815260408083209387168352929052205460ff16155b156105435760405163a9fbf51f60e01b81526001600160a01b038416600482015260240161007e565b811561058b5783856001600160a01b0316826001600160a01b03167f8c5be1e5ebec7d5bd14f71427d1e84f3dd0314c0f7b2291e5b200ac8c7c3b92560405160405180910390a45b505b5050600090815260046020526040902080546001600160a01b0319166001600160a01b0392909216919091179055565b60006001600160a01b0383161580159061063b5750826001600160a01b0316846001600160a01b0316148061061757506001600160a01b0380851660009081526005602090815260408083209387168352929052205460ff165b8061063b57506000828152600460205260409020546001600160a01b038481169116145b949350505050565b6000818152600260205260408120546001600160a01b03168061067c57604051637e27328960e01b81526004810184905260240161007e565b92915050565b634e487b7160e01b600052604160045260246000fd5b60005b838110156106b357818101518382015260200161069b565b50506000910152565b600082601f8301126106cd57600080fd5b81516001600160401b038111156106e6576106e6610682565b604051601f8201601f19908116603f011681016001600160401b038111828210171561071457610714610682565b60405281815283820160200185101561072c57600080fd5b61063b826020830160208701610698565b80516001600160a01b038116811461075457600080fd5b919050565b600080600080600080600080610100898b03121561077657600080fd5b88516001600160401b0381111561078c57600080fd5b6107988b828c016106bc565b60208b015160408c015160608d0151929b50909950975090506001600160401b038111156107c557600080fd5b6107d18b828c016106bc565b9550506107e060808a0161073d565b93506107ee60a08a0161073d565b60c08a015160e08b015191945092506001600160401b0381111561081157600080fd5b61081d8b828c016106bc565b9150509295985092959890939650565b600181811c9082168061084157607f821691505b60208210810361086157634e487b7160e01b600052602260045260246000fd5b50919050565b601f8211156101a857806000526020600020601f840160051c8101602085101561088e5750805b601f840160051c820191505b81811015610335576000815560010161089a565b81516001600160401b038111156108c7576108c7610682565b6108db816108d5845461082d565b84610867565b6020601f82116001811461090f57600083156108f75750848201515b600019600385901b1c1916600184901b178455610335565b600084815260208120601f198516915b8281101561093f578785015182556020948501946001909201910161091f565b508482101561095d5786840151600019600387901b60f8161c191681555b50505050600190811b01905550565b634e487b7160e01b600052601160045260246000fd5b6000600182016109945761099461096c565b5060010190565b600060ff821660ff81036109b1576109b161096c565b60010192915050565b60018060a01b038516815260018060a01b038416602082015282604082015260806060820152600082518060808401526109fb8160a0850160208701610698565b601f01601f19169190910160a00195945050505050565b600060208284031215610a2457600080fd5b81516001600160e01b031981168114610a3c57600080fd5b9392505050565b6124bc80610a526000396000f3fe60806040526004361061019c5760003560e01c806370a08231116100ec578063b4e87e8f1161008a578063e0c5a27711610064578063e0c5a27714610508578063e985e9c51461051d578063f2fde38b1461053d578063f51f96dd1461055d57600080fd5b8063b4e87e8f146104b3578063b88d4fde146104c8578063c87b56dd146104e857600080fd5b80638da5cb5b116100c65780638da5cb5b1461044057806395d89b411461045e578063a22cb46514610473578063a4406bcd1461049357600080fd5b806370a08231146103e6578063715018a61461040657806386de13d01461041b57600080fd5b80631a46829c1161015957806335cea2881161013357806335cea288146102f857806342842e0e146103575780634a8393f3146103775780636352211e146103c657600080fd5b80631a46829c146102985780631a46e42a146102b857806323b872dd146102d857600080fd5b806301ffc9a7146101a157806306fdde03146101d6578063081812fc146101f8578063095ea7b31461023057806314dca6021461025257806319f577b314610277575b600080fd5b3480156101ad57600080fd5b506101c16101bc366004611ece565b610573565b60405190151581526020015b60405180910390f35b3480156101e257600080fd5b506101eb6105c5565b6040516101cd9190611f3b565b34801561020457600080fd5b50610218610213366004611f4e565b610657565b6040516001600160a01b0390911681526020016101cd565b34801561023c57600080fd5b5061025061024b366004611f83565b610680565b005b34801561025e57600080fd5b5061026761068f565b6040516101cd9493929190611fe9565b61028a610285366004611f4e565b610983565b6040519081526020016101cd565b3480156102a457600080fd5b506102506102b3366004611f4e565b610a74565b3480156102c457600080fd5b506102506102d3366004611f4e565b610bae565b3480156102e457600080fd5b506102506102f3366004612074565b610d1e565b34801561030457600080fd5b50610347610313366004611f4e565b600d6020526000908152604090208054600182015460028301546003909301546001600160a01b0390921692909160ff1684565b6040516101cd94939291906120c7565b34801561036357600080fd5b50610250610372366004612074565b610da9565b34801561038357600080fd5b50610347610392366004611f4e565b600e6020526000908152604090208054600182015460028301546003909301546001600160a01b0390921692909160ff1684565b3480156103d257600080fd5b506102186103e1366004611f4e565b610dc9565b3480156103f257600080fd5b5061028a610401366004612112565b610dd4565b34801561041257600080fd5b50610250610e1c565b34801561042757600080fd5b50610430610e30565b6040516101cd949392919061212d565b34801561044c57600080fd5b506006546001600160a01b0316610218565b34801561046a57600080fd5b506101eb610e60565b34801561047f57600080fd5b5061025061048e366004612178565b610e6f565b34801561049f57600080fd5b5061028a6104ae3660046121b4565b610e7a565b3480156104bf57600080fd5b506101eb611059565b3480156104d457600080fd5b506102506104e33660046121ec565b6110e7565b3480156104f457600080fd5b506101eb610503366004611f4e565b6110ff565b34801561051457600080fd5b50610267611143565b34801561052957600080fd5b506101c16105383660046122d0565b611427565b34801561054957600080fd5b50610250610558366004612112565b611455565b34801561056957600080fd5b5061028a60095481565b60006001600160e01b031982166380ac58cd60e01b14806105a457506001600160e01b03198216635b5e139f60e01b145b806105bf57506301ffc9a760e01b6001600160e01b03198316145b92915050565b6060600080546105d490612303565b80601f016020809104026020016040519081016040528092919081815260200182805461060090612303565b801561064d5780601f106106225761010080835404028352916020019161064d565b820191906000526020600020905b81548152906001019060200180831161063057829003601f168201915b5050505050905090565b600061066282611493565b506000828152600460205260409020546001600160a01b03166105bf565b61068b8282336114cc565b5050565b6060806060806000805b6010548160ff1610156106f657600060ff8083166000908152600e60205260409020600301541660028111156106d1576106d16120b1565b036106e457816106e081612353565b9250505b806106ee81612353565b915050610699565b5060008160ff1667ffffffffffffffff811115610715576107156121d6565b60405190808252806020026020018201604052801561073e578160200160208202803683370190505b50905060008260ff1667ffffffffffffffff81111561075f5761075f6121d6565b604051908082528060200260200182016040528015610788578160200160208202803683370190505b50905060008360ff1667ffffffffffffffff8111156107a9576107a96121d6565b6040519080825280602002602001820160405280156107d2578160200160208202803683370190505b50905060008460ff1667ffffffffffffffff8111156107f3576107f36121d6565b60405190808252806020026020018201604052801561081c578160200160208202803683370190505b5090506000945060005b6010548160ff16101561097357600060ff8083166000908152600e602052604090206003015416600281111561085e5761085e6120b1565b036109615760ff8082166000908152600e602052604090205486516001600160a01b0390911691879190891690811061089957610899612372565b60200260200101906001600160a01b031690816001600160a01b031681525050600e60008260ff16815260200190815260200160002060010154848760ff16815181106108e8576108e8612372565b602002602001018181525050600e60008260ff16815260200190815260200160002060020154838760ff168151811061092357610923612372565b6020026020010181815250508060ff16828760ff168151811061094857610948612372565b60209081029190910101528561095d81612353565b9650505b8061096b81612353565b915050610826565b5092989197509550909350915050565b60006040518060800160405280336001600160a01b03168152602001838152602001348152602001600060028111156109be576109be6120b1565b815250600d6000600f54815260200190815260200160002060008201518160000160006101000a8154816001600160a01b0302191690836001600160a01b03160217905550602082015181600101556040820151816002015560608201518160030160006101000a81548160ff02191690836002811115610a4157610a416120b1565b021790555050600f805491506000610a5883612388565b9190505550610a656114d9565b6001600f546105bf91906123a1565b6000818152600d60205260409020546001600160a01b03163314610adf5760405162461bcd60e51b815260206004820152601d60248201527f6d73672e73656e646572206973206e6f74206f72646572206f776e657200000060448201526064015b60405180910390fd5b6000818152600d602052604081206003015460ff166002811115610b0557610b056120b1565b14610b465760405162461bcd60e51b815260206004820152601160248201527037b93232b91034b9903737ba1037b832b760791b6044820152606401610ad6565b6000818152600d60205260408082206002015490513392839280156108fc02929091818181858888f19350505050158015610b85573d6000803e3d6000fd5b50506000908152600d60205260408120600280820192909255600301805460ff19169091179055565b6000818152600e60205260409020546001600160a01b03163314610c145760405162461bcd60e51b815260206004820152601d60248201527f6d73672e73656e646572206973206e6f74206f72646572206f776e65720000006044820152606401610ad6565b6000818152600e602052604081206003015460ff166002811115610c3a57610c3a6120b1565b14610c7b5760405162461bcd60e51b815260206004820152601160248201527037b93232b91034b9903737ba1037b832b760791b6044820152606401610ad6565b6000818152600e60205260409081902060038101805460ff19166002179055805460019091015491516323b872dd60e01b815230600482018190526001600160a01b0390921660248201526044810192909252906323b872dd90606401600060405180830381600087803b158015610cf257600080fd5b505af1158015610d06573d6000803e3d6000fd5b505050600091825250600e6020526040812060020155565b6001600160a01b038216610d4857604051633250574960e11b815260006004820152602401610ad6565b6000610d558383336116da565b9050836001600160a01b0316816001600160a01b031614610da3576040516364283d7b60e01b81526001600160a01b0380861660048301526024820184905282166044820152606401610ad6565b50505050565b610dc4838383604051806020016040528060008152506110e7565b505050565b60006105bf82611493565b60006001600160a01b038216610e00576040516322718ad960e21b815260006004820152602401610ad6565b506001600160a01b031660009081526003602052604090205490565b610e246117d3565b610e2e6000611800565b565b60608060606000610e3f611852565b610e476105c5565b610e4f610e60565b600754935093509350935090919293565b6060600180546105d490612303565b61068b338383611861565b6040516323b872dd60e01b81523360048201523060248201819052604482018490526000916323b872dd90606401600060405180830381600087803b158015610ec257600080fd5b505af1158015610ed6573d6000803e3d6000fd5b5050505060005b6010548160ff161015610f9157600060ff8083166000908152600e6020526040902060030154166002811115610f1557610f156120b1565b03610f7f5760ff81166000908152600e6020526040902060010154849003610f7f5760405162461bcd60e51b815260206004820152601960248201527f6f7264657220697320616c726561647920666f722073616c65000000000000006044820152606401610ad6565b80610f8981612353565b915050610edd565b506040805160808101825233815260208082018681528284018681526000606085018181526010548252600e90945294909420835181546001600160a01b0319166001600160a01b03909116178155905160018083019190915593516002808301919091559151600382018054949592949193909260ff199092169190849081111561101f5761101f6120b1565b021790555050601080549150600061103683612388565b91905055506110436114d9565b600160105461105291906123a1565b9392505050565b600c805461106690612303565b80601f016020809104026020016040519081016040528092919081815260200182805461109290612303565b80156110df5780601f106110b4576101008083540402835291602001916110df565b820191906000526020600020905b8154815290600101906020018083116110c257829003601f168201915b505050505081565b6110f2848484610d1e565b610da33385858585611900565b606061110a82611493565b50611113611852565b61111c83611a2b565b60405160200161112d9291906123b4565b6040516020818303038152906040529050919050565b6060806060806000805b600f548160ff1610156111aa57600060ff8083166000908152600d6020526040902060030154166002811115611185576111856120b1565b03611198578161119481612353565b9250505b806111a281612353565b91505061114d565b5060008160ff1667ffffffffffffffff8111156111c9576111c96121d6565b6040519080825280602002602001820160405280156111f2578160200160208202803683370190505b50905060008260ff1667ffffffffffffffff811115611213576112136121d6565b60405190808252806020026020018201604052801561123c578160200160208202803683370190505b50905060008360ff1667ffffffffffffffff81111561125d5761125d6121d6565b604051908082528060200260200182016040528015611286578160200160208202803683370190505b50905060008460ff1667ffffffffffffffff8111156112a7576112a76121d6565b6040519080825280602002602001820160405280156112d0578160200160208202803683370190505b5090506000945060005b600f548160ff16101561097357600060ff8083166000908152600d6020526040902060030154166002811115611312576113126120b1565b036114155760ff8082166000908152600d602052604090205486516001600160a01b0390911691879190891690811061134d5761134d612372565b60200260200101906001600160a01b031690816001600160a01b031681525050600d60008260ff16815260200190815260200160002060010154848760ff168151811061139c5761139c612372565b602002602001018181525050600d60008260ff16815260200190815260200160002060020154838760ff16815181106113d7576113d7612372565b6020026020010181815250508060ff16828760ff16815181106113fc576113fc612372565b60209081029190910101528561141181612353565b9650505b8061141f81612353565b9150506112da565b6001600160a01b03918216600090815260056020908152604080832093909416825291909152205460ff1690565b61145d6117d3565b6001600160a01b03811661148757604051631e4fbdf760e01b815260006004820152602401610ad6565b61149081611800565b50565b6000818152600260205260408120546001600160a01b0316806105bf57604051637e27328960e01b815260048101849052602401610ad6565b610dc48383836001611abe565b60005b6010548160ff16101561149057600060ff8083166000908152600e6020526040902060030154166002811115611514576115146120b1565b036116c85760005b600f548160ff1610156116c657600060ff8083166000908152600d6020526040902060030154166002811115611554576115546120b1565b036116b45760ff8083166000908152600e602090815260408083206002908101549486168452600d9092529091200154036116b45760ff8083166000908152600e602090815260408083206001908101549486168452600d9092529091200154036116b4576115c58260ff16611bc4565b60ff8181166000908152600d60209081526040808320549386168352600e909152908190206001015490516323b872dd60e01b815230600482018190526001600160a01b03909316602482015260448101919091526323b872dd90606401600060405180830381600087803b15801561163d57600080fd5b505af1158015611651573d6000803e3d6000fd5b5050505060ff8281166000818152600e6020818152604080842060038082018054600160ff199182168117909255988a168752600d85529286200180549097169091179095556007549390925290526002909101546116b091906123f3565b6009555b806116be81612353565b91505061151c565b505b806116d281612353565b9150506114dc565b6000828152600260205260408120546001600160a01b039081169083161561170757611707818486611d16565b6001600160a01b0381161561174557611724600085600080611abe565b6001600160a01b038116600090815260036020526040902080546000190190555b6001600160a01b03851615611774576001600160a01b0385166000908152600360205260409020805460010190555b60008481526002602052604080822080546001600160a01b0319166001600160a01b0389811691821790925591518793918516917fddf252ad1be2c89b69c2b068fc378daa952ba7f163c4a11628f55a4df523b3ef91a4949350505050565b6006546001600160a01b03163314610e2e5760405163118cdaa760e01b8152336004820152602401610ad6565b600680546001600160a01b038381166001600160a01b0319831681179093556040519116919082907f8be0079c531659141344cd1fd0a4f28419497f9722a3daafe3b4186f6b6457e090600090a35050565b6060600c80546105d490612303565b6001600160a01b03821661189357604051630b61174360e31b81526001600160a01b0383166004820152602401610ad6565b6001600160a01b03838116600081815260056020908152604080832094871680845294825291829020805460ff191686151590811790915591519182527f17307eab39ab6107e8899845ad3d59bd9653f200f220920489ca2b5937696c31910160405180910390a3505050565b6001600160a01b0383163b15611a2457604051630a85bd0160e11b81526001600160a01b0384169063150b7a029061194290889088908790879060040161240a565b6020604051808303816000875af192505050801561197d575060408051601f3d908101601f1916820190925261197a91810190612447565b60015b6119e6573d8080156119ab576040519150601f19603f3d011682016040523d82523d6000602084013e6119b0565b606091505b5080516000036119de57604051633250574960e11b81526001600160a01b0385166004820152602401610ad6565b805181602001fd5b6001600160e01b03198116630a85bd0160e11b14611a2257604051633250574960e11b81526001600160a01b0385166004820152602401610ad6565b505b5050505050565b60606000611a3883611d7a565b600101905060008167ffffffffffffffff811115611a5857611a586121d6565b6040519080825280601f01601f191660200182016040528015611a82576020820181803683370190505b5090508181016020015b600019016f181899199a1a9b1b9c1cb0b131b232b360811b600a86061a8153600a8504945084611a8c57509392505050565b8080611ad257506001600160a01b03821615155b15611b94576000611ae284611493565b90506001600160a01b03831615801590611b0e5750826001600160a01b0316816001600160a01b031614155b8015611b215750611b1f8184611427565b155b15611b4a5760405163a9fbf51f60e01b81526001600160a01b0384166004820152602401610ad6565b8115611b925783856001600160a01b0316826001600160a01b03167f8c5be1e5ebec7d5bd14f71427d1e84f3dd0314c0f7b2291e5b200ac8c7c3b92560405160405180910390a45b505b5050600090815260046020526040902080546001600160a01b0319166001600160a01b0392909216919091179055565b6000818152600e6020526040902054600a546001600160a01b039091169015611cd057600b54600a546000848152600e60205260409020600201546001600160a01b039092169182916108fc91611c1e9061271090612464565b611c2891906123f3565b6040518115909202916000818181858888f19350505050158015611c50573d6000803e3d6000fd5b50600a546000848152600e60205260409020600201546001600160a01b038416916108fc91611c829061271090612464565b611c8c91906123f3565b6000868152600e6020526040902060020154611ca891906123a1565b6040518115909202916000818181858888f19350505050158015610da3573d6000803e3d6000fd5b6000828152600e60205260408082206002015490516001600160a01b0384169282156108fc02929190818181858888f19350505050158015610dc4573d6000803e3d6000fd5b611d21838383611e52565b610dc4576001600160a01b038316611d4f57604051637e27328960e01b815260048101829052602401610ad6565b60405163177e802f60e01b81526001600160a01b038316600482015260248101829052604401610ad6565b60008072184f03e93ff9f4daa797ed6e38ed64bf6a1f0160401b8310611db95772184f03e93ff9f4daa797ed6e38ed64bf6a1f0160401b830492506040015b6d04ee2d6d415b85acef81000000008310611de5576d04ee2d6d415b85acef8100000000830492506020015b662386f26fc100008310611e0357662386f26fc10000830492506010015b6305f5e1008310611e1b576305f5e100830492506008015b6127108310611e2f57612710830492506004015b60648310611e41576064830492506002015b600a83106105bf5760010192915050565b60006001600160a01b03831615801590611eb05750826001600160a01b0316846001600160a01b03161480611e8c5750611e8c8484611427565b80611eb057506000828152600460205260409020546001600160a01b038481169116145b949350505050565b6001600160e01b03198116811461149057600080fd5b600060208284031215611ee057600080fd5b813561105281611eb8565b60005b83811015611f06578181015183820152602001611eee565b50506000910152565b60008151808452611f27816020860160208601611eeb565b601f01601f19169290920160200192915050565b6020815260006110526020830184611f0f565b600060208284031215611f6057600080fd5b5035919050565b80356001600160a01b0381168114611f7e57600080fd5b919050565b60008060408385031215611f9657600080fd5b611f9f83611f67565b946020939093013593505050565b600081518084526020840193506020830160005b82811015611fdf578151865260209586019590910190600101611fc1565b5093949350505050565b60808082528551908201819052600090602087019060a0840190835b8181101561202c5783516001600160a01b0316835260209384019390920191600101612005565b505083810360208501526120408188611fad565b91505082810360408401526120558186611fad565b905082810360608401526120698185611fad565b979650505050505050565b60008060006060848603121561208957600080fd5b61209284611f67565b92506120a060208501611f67565b929592945050506040919091013590565b634e487b7160e01b600052602160045260246000fd5b6001600160a01b03851681526020810184905260408101839052608081016003831061210357634e487b7160e01b600052602160045260246000fd5b82606083015295945050505050565b60006020828403121561212457600080fd5b61105282611f67565b6080815260006121406080830187611f0f565b82810360208401526121528187611f0f565b905082810360408401526121668186611f0f565b91505082606083015295945050505050565b6000806040838503121561218b57600080fd5b61219483611f67565b9150602083013580151581146121a957600080fd5b809150509250929050565b600080604083850312156121c757600080fd5b50508035926020909101359150565b634e487b7160e01b600052604160045260246000fd5b6000806000806080858703121561220257600080fd5b61220b85611f67565b935061221960208601611f67565b925060408501359150606085013567ffffffffffffffff81111561223c57600080fd5b8501601f8101871361224d57600080fd5b803567ffffffffffffffff811115612267576122676121d6565b604051601f8201601f19908116603f0116810167ffffffffffffffff81118282101715612296576122966121d6565b6040528181528282016020018910156122ae57600080fd5b8160208401602083013760006020838301015280935050505092959194509250565b600080604083850312156122e357600080fd5b6122ec83611f67565b91506122fa60208401611f67565b90509250929050565b600181811c9082168061231757607f821691505b60208210810361233757634e487b7160e01b600052602260045260246000fd5b50919050565b634e487b7160e01b600052601160045260246000fd5b600060ff821660ff81036123695761236961233d565b60010192915050565b634e487b7160e01b600052603260045260246000fd5b60006001820161239a5761239a61233d565b5060010190565b818103818111156105bf576105bf61233d565b600083516123c6818460208801611eeb565b8351908301906123da818360208801611eeb565b64173539b7b760d91b9101908152600501949350505050565b80820281158282048414176105bf576105bf61233d565b6001600160a01b038581168252841660208201526040810183905260806060820181905260009061243d90830184611f0f565b9695505050505050565b60006020828403121561245957600080fd5b815161105281611eb8565b60008261248157634e487b7160e01b600052601260045260246000fd5b50049056fea2646970667358221220d972eba6b6a3f6710847e74c58672a60891e325b4b45311107a0e5121643402664736f6c634300081b0033",
  "linkReferences": {},
  "deployedLinkReferences": {}
}